:100000000C942A000C9447000C9447000C94470071
:100010000C9447000C9447000C9447000C94470044
:100020000C9447000C9447000C9447000C94470034
:100030000C9447000C9447000C9447000C94470024
:100040000C9447000C9447000C9447000C94470014
:100050000C94470011241FBECFE5D4E0DEBFCDBF16
:1000600010E0A0E6B0E0E8EAF6E002C005900D92EC
:10007000A236B107D9F710E0A2E6B0E001C01D92A8
:10008000A237B107E1F70E9469020C9452030C9465
:100090000000EF92FF920F931F937B018C012AE0E7
:1000A00030E040E050E00E94300370936B006093BA
:1000B0006A00C801B7012AE030E040E050E00E9449
:1000C0003003122F032FF42EE52E622F732F842F6F
:1000D000952F2AE030E040E050E00E94300370931A
:1000E0006D0060936C00612F702F8F2D9E2D2AE084
:1000F00030E040E050E00E943003122F032FF42E36
:10010000E52E622F732F842F952F2AE030E040E0F8
:1001100050E00E94300370936F0060936E00612F77
:10012000702F8F2D9E2D2AE030E040E050E00E949D
:100130003003CA01B9012AE030E040E050E00E94FB
:10014000300370937100609370001F910F91FF90C6
:10015000EF900895DC01E0E7F0E040E050E009C0F6
:100160004F5F5F4F129632974430510511F481E092
:1001700008952D913C91119780819181281739071D
:1001800079F380E008958FEF84BB89E885BB8EE02A
:100190008ABBD998DA98DB9810926600089585BBDF
:1001A000089540E050E0A0E9B1E09FEF14C085BBA6
:1001B00020E137E2FD013197F1F721503040D1F7CE
:1001C00095BB20E137E2FD013197F1F72150304036
:1001D000D1F74F5F5F4F461757074CF385BB089524
:1001E000DB98D99ADA9881EC85BB80E197E220E927
:1001F00031E0F9013197F1F70197D9F7D998DA98F9
:10020000109265000895D99ADA9ADB9820E030E0E0
:1002100077EC40E951E06FEF75BB80E197E2FA01BE
:100220003197F1F70197D9F765BB80E197E2FA01C1
:100230003197F1F70197D9F72F5F3F4F2330310501
:1002400059F787EC85BB81E08093640010926500CC
:100250000895CF93DF93809166008823B9F588B322
:100260008F6088BB60E070E0C0E4D0E0A8E0B0E060
:10027000E62F87B3807887BB27B3CE01062E02C056
:10028000959587950A94E2F7282B27BB40E050E02C
:1002900086B39D01042E02C0359527950A94E2F796
:1002A00090E028233923232B39F4CA01880F991FA2
:1002B000840F951F8E0F0BC04F5F5F4F4430510569
:1002C00039F76F5F7F4F6330710591F68FEFDF91E4
:1002D000CF910895AF92BF92CF92DF92EF92FF92AB
:1002E0000F931F93DF93CF93CDB7DEB728970FB649
:1002F000F894DEBF0FBECDBFE0906000F0906100CB
:100300006E010894C11CD11CAA24AA94BA2C809115
:1003100062009091630003970CF0B7C08091600079
:10032000909161000997F1F11092680010926700B6
:1003300088C080916000909161008930910581F0C2
:10034000F901EE0FFF1F8A30910529F4EC0DFD1D18
:100350001182108205C0EC0DFD1D019691838083F2
:100360000E942901809360001092610080916000DA
:1003700090916100E816F90699F306C00E942901E0
:100380008093600010926100009160001091610004
:100390000F3F110599F389E0E816F104E9F50930FA
:1003A000110531F487EC85BB81E08093690080C042
:1003B000E0916700F09168000A30110539F4EE0F02
:1003C000FF1FEC0DFD1D1182108211C0EE0FFF1FEB
:1003D000EC0DFD1D0F5F1F4F118300830150104076
:1003E00006C00E94290180936000109261008091F4
:1003F0006000909161000817190799F306C00E94E8
:1004000029018093600010926100809160009091BA
:1004100061008F3F910599F3E0906000F0906100DA
:1004200089E0E816F10421F4B0926800A092670018
:100430008091670090916800019690936800809386
:1004400067002091670030916800243031050CF47A
:1004500070CFD601E0E7F0E040E050E007C04F5F2A
:100460005F4F129632974430510549F02D913C91DF
:100470001197808191812817390789F30BC0109259
:10048000690081E08093650013C0109269001092AA
:1004900065000EC0109269001092650080916200A4
:1004A00090916300019690936300809362002FCF38
:1004B00028960FB6F894DEBF0FBECDBFCF91DF9167
:1004C0001F910F91FF90EF90DF90CF90BF90AF9072
:1004D0000895EF92FF920F931F93CF93DF938FEFC7
:1004E00084BB89E885BB8EE08ABBD998DA98DB9813
:1004F0001092660062ED74E080E090E00E94490096
:100500007CE8F72EC0E9D1E00FEF18E867ECE62EA3
:100510000E942901893051F480916400882331F4CC
:100520008BB3882319F00E940301F2CF80916400FD
:10053000882309F48DC08BB38823D1F4DB9A20E0A3
:1005400030E015BB80E197E2FE013197F1F70197AA
:10055000D9F705BB80E197E2FE013197F1F70197EA
:10056000D9F72F5F3F4F2330310559F715BBD0CF57
:100570008BB3882369F2DB980E942901893041F608
:10058000F5BA80E197E2FE013197F1F70197D9F7CB
:1005900005BB80E197E2FE013197F1F70197D9F7AA
:1005A000F5BA109266000E942901809360001092B3
:1005B000610080916000909161008F3F910599F3F7
:1005C0000E946A018091650090916900882321F062
:1005D000992309F09DCF39C0992311F0E5BA98CF3E
:1005E000DB9A20E030E015BB80E197E2FE01319715
:1005F000F1F70197D9F705BB80E197E2FE0131974A
:10060000F1F70197D9F72F5F3F4F2330310559F7A5
:1006100015BB0E94290180936000109261008091B7
:100620006000909161008F3F910599F30E946A01EB
:100630008091650090916900882319F4992349F30A
:1006400067CF992309F064CFDB981092640060CFE4
:1006500080916500882309F45BCF0E94F00058CF99
:10066000A1E21A2EAA1BBB1BFD010DC0AA1FBB1FB6
:10067000EE1FFF1FA217B307E407F50720F0A21B28
:10068000B30BE40BF50B661F771F881F991F1A9495
:1006900069F760957095809590959B01AC01BD01BF
:0806A000CF010895F894FFCF8B
:0206A800FF0051
:00000001FF
